:100000000C94AE1C0C94DF1C0C94DF1C0C94DF1CB5
:100010000C94DF1C0C94DF1C0C94DF1C0C94DF1C74
:100020000C94DF1C0C94DF1C0C94DF1C0C94DF1C64
:100030000C94DF1C0D9414060C94DF1C0C94DF1C34
:100040000C94DF1C0C946CAE0C94DF1C0C94DF1C25
:100050000C94DF1C0C94DF1C0C9464A80D94A60A6D
:100060000C94DF1C0C94FF760C94F5760C94DF1C3A
:100070000C94DF1C0C94DF1C0C94DF1C0C94DF1C14
:100080000C94DF1C0C94DF1C0C94DF1C0C94DF1C04
:100090000C94DF1C0C94DF1C0C94DF1C0C94DF1CF4
:1000A0000C94DF1C0C94DF1C0C94DF1C0C94DF1CE4
:1000B0000C94DF1C0C94DF1C0C94DF1C0C94DF1CD4
:1000C0000C94DF1C0C94DF1C0C94DF1C0C94DF1CC4
:1000D0000C94DF1C0C94DF1C0C94DF1C0C94DF1CB4
:1000E0000C94DF1C084AD73B3BCE016E84BCBFFD9D
:1000F000C12F3D6C74319ABD56833DDA3D00C77FF8
:1001000011BED9E4BB4C3E916BAAAABE0000008090
:100110003F05A84CCDB2D44EB93836A9020C50B91F
:10012000918688083CA6AAAA2ABE000000803F004B
:100130000C9489EB0C9423380C94CFD50D94ED08D6
:100140000C940A320C944E400C9492220C94A61DEE
:100150000C9491430C94F8EB0C949EEB0C94BF1D03
:100160000C948C360C94A8EB0D9479080C94713295
:100170000C94FB8E0C94DA380C9494220D949C0809
:100180000C940FA50C94CA2D0C94321E0D940109E9
:100190000C9499220C94CB500C94C3290C943D32AE
:1001A0000C9406320C942B2D0C948F4F0C94D72961
:1001B0000D9457070C9479450C94A4EB0C949B4137
:1001C0000C94AC3D0D9488080C94A8250C9493EBEA
:1001D0000C9474220C948FEB0C94AEEB0C94E323F0
:1001E0000C94479F0C94F3370C94591D0C940E32C9
:1001F0000C94BCEB0C941E460C94E7230C94E52362
:100200000C940C1E0C9404290C948A230D940B0955
:100210000C9411380C94D2290C94ED230C94F629EB
:100220000D94D9080D94F7080C94C0290C947D22E4
:100230000C948F990C94A3220C94D6320C94F11F39
:100240000C9441360C9422320C94C0950C9497EB8C
:100250000D94A4080C941D380C947F1D0C948F29C8
:100260000C94973A0C94FE280D94E3080C94B6EB8A
:100270000C9446360C94981D0C941A320C94D32886
:100280000C94CC290C943D290C9496930C94ED3746
:100290000C94D9290C943F2F0C943C360D94CA0829
:1002A0000C94CF290C94D6910C94C9EB0C94EB23AD
:1002B0000C944A9C0C9457320C9459240C94C629E3
:1002C0000D94991D0C9430220C94CEEB0C941029B3
:1002D0000C94F3940C9408240C94C0EB0C94C9294E
:1002E0000C94E11C0C949BEB0C94822C0C949022AB
:1002F0000C940B380C9412320C9414A00C94622EB3
:100300000D94AC080D947E080C9429EB0C94B2EB80
:100310000C94B4250C94C4EB0C9424CA0C943EEBBE
:100320000C941A1D0C9487230C9490440C944B212C
:100330000D9471080C940F1D0C94F9370C94F11D59
:100340000C94CBA10C9405380C944A240C94C4D87A
:100350000C943A3F0C94CBD50C94D1A50D94FF2569
:100360000C941E320C94C59D0C94DF230C94023225
:100370000C94041D0C94A12C0C94F8280D94C00826
:100380000C94F7EB0C9416320C9417380C941F1E37
:100390000D9492080C9490230C9437360C942DEB0A
:1003A0000C9488290C946C1D0C945D210C948D2365
:1003B0000C94B5290C941A1F0C944B1E0C94E73323
:1003C0000C945A210C94E7370C9426320C94FFD5E8
:1003D0000C94ED970C94FF370C94E9230C94E123D3
:1003E0000C949E220D94B6080C942F2C0C94D81DBE
:1003F0000C94D0230C9425C70C940A290C94CAEBB6
:100400000C94DC294E414E494E495459494E46CD33
:10041000CCCC3D0AD7233C17B7D13877CC2B3295BB
:1004200095E6241FB14F0A000020410000C8420099
:10043000401C4620BCBE4CCA1B0E5AAEC59D740063
:10044000407A10F35A00A0724E18090010A5D4E8A3
:100450000000E87648170000E40B54020000CA9A36
:100460003B000000E1F50500008096980000004088
:10047000420F000000A086010000001027000000CD
:1004800000E803000000006400000000000A000013
:100490000000000100000000002C76D888DC674FC7
:1004A0000823DFC1DFAE59E1B1B796E5E3E453C6F7
:1004B0003AE651997696E8E6C28426EB898C9B62EF
:1004C000ED407C6FFCEFBC9C9F40F2BAA56FA5F499
:1004D00090055A2AF75C936B6CF9676DC11BFCE0C1
:1004E000E40D47FEF520E6B500D0ED902E03009414
:1004F0003577050080841E080000204E0A000000A9
:10050000C80C333333330F986E12831141EF8D21B2
:1005100014893BE65516CFFEE6DB18D1844B381B19
:10052000F77C1D901DA4BBE424203284725E2281DE
:1005300000C9F124ECA1E53D27434F4D4D554E49EF
:10054000434154494F4E0044525952554E00455272
:10055000524F525300494E464F004543484F0055B5
:100560004E4C4F41442046494C414D454E54004C61
:100570004F41442046494C414D454E540046494C5C
:10058000414D454E54204348414E47450045727207
:100590006F722077726974696E6720746F204545A9
:1005A00050524F4D210A00363726033C3D380E2E5F
:1005B000303E1224221E1A1C180AFF43080907089D
:1005C0004400014D343130004D313132004D313075
:1005D000380053544F505045442E20005072696EDD
:1005E0007465722073746F70706564206475652023
:1005F000746F206572726F72732E20466978207452
:100600006865206572726F7220616E642075736513
:10061000204D39393920746F20726573746172749A
:100620002E202854656D706572617475726520693D
:10063000732072657365742E20536574206974206D
:1006400061667465722072657374617274696E6735
:10065000290A004E6F20436865636B73756D2077C0
:10066000697468206C696E65206E756D6265722CA8
:10067000204C617374204C696E653A20004E6F20E7
:10068000436865636B73756D2077697468206C6966
:100690006E65206E756D6265722C204C61737420DE
:1006A0004C696E653A2000636865636B73756D20F5
:1006B0006D69736D617463682C204C617374204C98
:1006C000696E653A20004C696E65204E756D6265F5
:1006D00072206973206E6F74204C617374204C69B2
:1006E0006E65204E756D6265722B312C204C6173E6
:1006F00074204C696E653A20004D3131300053440E
:100700002072656164206572726F720A0021212077
:100710004B494C4C20636175736564206279204BB2
:10072000494C4C20627574746F6E2F70696E0A00AC
:100730002121204B494C4C20636175736564206214
:100740007920746F6F206D75636820696E616374C2
:100750006976652074696D65202D206375727265F8
:100760006E7420636F6D6D616E643A20004D656438
:1007700069612052656D6F766564004D65646961DD
:1007800020496E73657274656400506C65617365B1
:10079000205265736574005052494E5445522048AA
:1007A000414C5445440025533A202553004B494CB5
:1007B0004C45442E20005072696E74657220686149
:1007C0006C7465642E206B696C6C28292063616CE5
:1007D0006C6564210A006563686F3A004572726F48
:1007E000723A000A4D6561737572656420706F69B5
:1007F0006E74733A0A00337833206D6573682E2067
:100800005A206F66667365743A2000486F74656E8F
:100810006420746F6F20636F6C640A004732362067
:1008200043616E63656C65640047323620486561DC
:1008300074696E67204E6F7A7A6C65004732362095
:1008400048656174696E6720426564005761697428
:10085000696E6720666F72206865617475702E0A14
:10086000004669786564204C656E67746820507234
:10087000696D6500446F6E65205072696D696E67C1
:10088000004D616E75616C207072696D696E672EC6
:100890002E2E004C656176696E6720473236003F28
:1008A00053706563696669656420582C5920636FCD
:1008B0006F7264696E617465206F7574206F662055
:1008C000626F756E64732E0A003F28522965706549
:1008D00061742076616C7565206E6F7420706C6138
:1008E000757369626C653B206D7573742062652059
:1008F0006174206C6561737420312E0A003F53705F
:1009000065636966696564206E6F7A7A6C652074C8
:10091000656D7065726174757265206E6F7420709C
:100920006C61757369626C652E0A003F5370656374
:1009300069666965642066696C616D656E742073B3
:10094000697A65206E6F7420706C61757369626C72
:10095000652E0A003F53706563696669656420709F
:1009600072696D65206C656E677468206E6F7420A7
:10097000706C61757369626C652E0A003F53706517
:10098000636966696564206E6F7A7A6C6520736945
:100990007A65206E6F7420706C61757369626C6526
:1009A0002E0A003F52657472616374696F6E204D48
:1009B000756C7469706C696572206D7573742062F2
:1009C00065207370656369666965642E0A003F532C
:1009D00070656369666965642052657472616374E9
:1009E000696F6E204D756C7469706C696572206EEC
:1009F0006F7420706C61757369626C652E0A003FBC
:100A0000537065636966696564206C6179657220FD
:100A1000686569676874206E6F7420706C617573A7
:100A200069626C652E0A0043292E0A003F537065E7
:100A3000636966696564206265642074656D7065CC
:100A4000726174757265206E6F7420706C6175735D
:100A500069626C65202834302D004732362073746B
:100A6000617274696E672E2E2E0A004F46460A0088
:100A70004661646520486569676874200042656462
:100A8000204C6576656C696E6720004661696C650F
:100A90006420746F20656E61626C6520426564201D
:100AA0004C6576656C696E670A004D657368204217
:100AB0006564204C6576656C20646174613A0A0057
:100AC000496E76616C6964206D6573682E0A00203A
:100AD0006E6F7420656E74657265642E0A00206FF7
:100AE0006620004D424C2047323920706F696E7489
:100AF0002000290A004A206F7574206F66207261F9
:100B00006E67652028302D00290A0049206F757412
:100B1000206F662072616E67652028302D004D655C
:100B200073682070726F62696E6720646F6E652EE5
:100B30000A005374617274206D6573682070726F5F
:100B400062696E67207769746820224732392053C2
:100B500031222066697273742E0A004732380A47C0
:100B6000323920533200686173206E6F20646174E3
:100B7000612E0A004D65736820426564204C6576DD
:100B8000656C696E67200053206F7574206F662056
:100B900072616E67652028302D35292E0A004D655B
:100BA000736820706F696E74206F7574206F662093
:100BB00072616E67650A004D34323120696E636F71
:100BC000727265637420706172616D657465722004
:100BD00075736167650A004F4646004F4E0020203E
:100BE0004D61783A2000200020204D696E3A2000A7
:100BF000536F667420656E6473746F70733A20006F
:100C00004D3630303A20546F6F20436F6C6400488B
:100C10006F74656E6420746F6F20636F6C640A007C
:100C2000496E736572742066696C616D656E7420BF
:100C3000616E6420707265737320627574746F6E78
:100C40000A00507265737320627574746F6E20743D
:100C50006F2068656174206E6F7A7A6C650A002077
:100C6000496E76616C69642065787472756465722A
:100C7000200047322F473320626164207061726127
:100C80006D65746572730A00536C6565702E2E2E47
:100C9000004D65736820706F696E74206F757420E5
:100CA0006F662072616E67650A00436C69636B2032
:100CB000746F20526573756D652E2E2E004E6F2059
:100CC0004D6F76652E00456E642066696C65206CFC
:100CD0006973740A00426567696E2066696C6520F5
:100CE0006C6973740A00286E6F2066696C65290050
:100CF00043757272656E742066696C653A200053A4
:100D000044207072696E74696E6720627974652020
:100D1000004E6F74205344207072696E74696E6760
:100D20000A002E0A0044656C6574696F6E20666166
:100D3000696C65642C2046696C653A200046696CD4
:100D4000652064656C657465643A005072696E7400
:100D50002074696D653A2000496E76616C69642083
:100D600050696E204D6F64650A000A537461747394
:100D70003A2046696C616D656E7420757365643ADE
:100D800020002C204C6F6E67657374206A6F623A86
:100D90002000546F74616C2074696D653A200053B3
:100DA000746174733A20002C204661696C65643A62
:100DB00020002C2046696E69736865643A200050F3
:100DC00072696E74733A200053746174733A200030
:100DD000436F6F6C696E672E2E2E004865617469D3
:100DE0006E672E2E2E0045202553006F6B006F6618
:100DF00066005A0555054E054705390544454255D7
:100E0000473A004D3131322053687574646F776E04
:100E10000042656420436F6F6C696E672E2E2E0052
:100E20004265642048656174696E672E2E2E0054F9
:100E300045564F20546172616E74756C612028456F
:100E4000617379436F6E66696729204F46462E00AD
:100E50004348414D4245525F54454D5045524154DF
:100E600055524500424142595354455050494E470E
:100E70000041524353004D4F54494F4E5F4D4F4434
:100E8000455300544845524D414C5F50524F5445D4
:100E90004354494F4E004C4F4E475F46494C454ED8
:100EA000414D45004155544F5245504F52545F53A8
:100EB000445F5354415455530053444341524400FA
:100EC00050524F4D50545F535550504F525400455F
:100ED0004D455247454E43595F504152534552008C
:100EE000434153455F4C494748545F425249474844
:100EF000544E45535300544F47474C455F4C494768
:100F000048545300534F4654574152455F504F5732
:100F10004552004255494C445F50455243454E545A
:100F2000004C4556454C494E475F44415441005A98
:100F30005F50524F42450052554E4F555400415557
:100F4000544F4C4556454C005052494E545F4A4F01
:100F5000420050524F4752455353004155544F524F
:100F600045504F52545F54454D5000564F4C554DCF
:100F7000455452494300454550524F4D0042494E59
:100F80004152595F46494C455F5452414E53464584
:100F9000520053455249414C5F584F4E5F584F469F
:100FA00046004649524D574152455F4E414D453AE4
:100FB0004D61726C696E206275676669782D322E9C
:100FC000302E7820284F6374202035203230323084
:100FD0002031353A31343A33382920534F55524372
:100FE000455F434F44455F55524C3A687474707383
:100FF0003A2F2F6769746875622E636F6D2F4D618C
:10100000726C696E4669726D776172652F4D61729F
:101010006C696E2050524F544F434F4C5F564552AF
:1010200053494F4E3A312E30204D414348494E45A9
:101030005F545950453A5445564F20546172616E81
:1010400074756C61202845617379436F6E666967BA
:10105000292045585452554445525F434F554E54EC
:101060003A3120555549443A6365646532613266C8
:101070002D343161322D343734382D396231322DEF
:101080006335356336326633363766660A002F2F8E
:1010900020004D31343520533C696E6465783E2024
:1010A0006F7574206F662072616E67652028302D21
:1010B00031290A00205200416363656C65726174D6
:1010C000696F6E3A2050005741524E494E472120D9
:1010D0004C6F77205A204A65726B206D6179206CC5
:1010E00065616420746F20756E77616E746564202D
:1010F0007061757365732E0A0046523A0020466C83
:101100006F773A200050726F746563746564205085
:10111000696E0A004D424C2041646A757374205A0E
:101120000020643A0020693A0020703A00496E7647
:10113000616C69642065787472756465720A002058
:10114000643A0020693A0020703A006469730065CF
:101150006E0043290A0061626C656420286D696E27
:101160002074656D702000436F6C64206578747224
:10117000756465732061726520004F6666736574DF
:1011800073204170706C696564004572723A205436
:101190006F6F206661722100546F6F20666172204C
:1011A00066726F6D207265666572656E636520702C
:1011B0006F696E740A00454550524F4D204F4B0ADF
:1011C000002E0A002028302D313029002076616C55
:1011D0007565206F7574206F662072616E6765009B
:1011E000416476616E6365204B3D004D38340044A8
:1011F0006F6E65207072696E74696E672066696CC7
:10120000650A004D3737004D3331004361703A00B5
:10121000220A00656E7175657565696E672022002A
:101220006F6B00526573656E643A20002569730028
:1012300025696D20256973002569682025696D2061
:1012400025697300256964202569682025696D205A
:10125000256973002569792025696420256968203E
:1012600025696D202569730023646566696E6520B4
:1012700044454641554C545F00626564004B642010
:10128000004B6920004B7020005049442041757488
:101290006F74756E652066696E6973686564212078
:1012A00050757420746865206C617374204B702CC9
:1012B000204B6920616E64204B6420636F6E7374F1
:1012C000616E74732066726F6D2062656C6F77203B
:1012D000696E746F20436F6E6669677572617469B9
:1012E0006F6E2E680A00504944204175746F747502
:1012F0006E65206661696C6564212074696D656F37
:1013000075740A00504944204175746F74756E6598
:10131000206661696C6564212054656D7065726139
:101320007475726520746F6F20686967680A0020A1
:101330004B643A2000204B693A2000204B703A2041
:10134000000A20436C617373696320504944200A8A
:1013500000204B643A2000204B693A2000204B705B
:101360003A20000A204E6F206F76657273686F6FA7
:10137000740A002054753A2000204B753A20002052
:101380006D61783A2000206D696E3A200020643A41
:10139000200020626961733A200050494420417561
:1013A000746F74756E652073746172740A005049AD
:1013B00044204175746F74756E65206661696C6553
:1013C00064212054656D7065726174757265207456
:1013D0006F6F20686967680A00504944204175743E
:1013E0006F74756E6500504944204175746F747553
:1013F0006E65206661696C656421204261642065C8
:1014000078747275646572206E756D6265720A001B
:10141000A10000006900A20000006300B00000000D
:101420000900C10000004100C20000004100C300EB
:1014300000004100C40000004100C5000000410060
:10144000C60000004145C70000004300C80000007E
:101450004500C90000004500CD0000004900D10052
:1014600000004E00D50000004F00D60000004F00E5
:10147000D70000007800DC0000005500DD0000000F
:101480005900E00000006100E10000006100E2009E
:1014900000006100E30000006100E4000000610062
:1014A000E50000006100E60000006165E700000063
:1014B0006300E80000006500E90000006500EA0044
:1014C00000006500EB0000006500EC000000690012
:1014D000ED0000006900EE0000006900EF00000070
:1014E0006900F10000006E00F20000006F00F300E0
:1014F00000006F00F40000006F00F50000006F00B6
:10150000F60000006F00F80000006F00F900000016
:101510007500FA0000007500FB0000007500FC007B
:1015200000007500FD0000007900FF000000790058
:1015300004010000410005010000610006010000F7
:1015400043000701000063000C01000043000D018F
:10155000000063000E01000044000F010000640061
:101560001101000064001901000065001A0100006B
:1015700045001B01000065001F01000067003001ED
:1015800000004900310100006900410100004C00E9
:10159000420100006C00430100004E0044010000C5
:1015A0006E00480100006E00580100005200590111
:1015B000000072005A01000053005B01000073003C
:1015C0005F01000073006001000053006101000032
:1015D00073006501000074006F01000075007C015C
:1015E00000007A007D0100005A007E0100007A00B0
:1015F000920100006600E302000078002220000053
:101600002E001E210000507822210000544D902110
:1016100000003C2D922100002D3EB021000003006F
:10162000BB21000004003C2200007E004822000094
:101630007E3D60220000213D612200003D006422C9
:1016400000003C3D652200003E3DF1230000070004
:10165000A03000003D0021F301000200C2F40100AF
:101660000500A2000000EC00B0000000DF00E40074
:101670000000E100F6000000EF00F7000000FD00B0
:10168000FC000000F500E3020000EB00870300000F
:10169000A5008F030000F40098030000F2009E03F1
:1016A0000000E300A3030000F600A9030000F4001B
:1016B000AC030000E000AD030000E300B103000054
:1016C000E000B2030000E200B5030000E300B8034D
:1016D0000000F200BC030000E400BE030000E300D1
:1016E000C0030000F700C1030000E600C3030000D0
:1016F000E500902100007F00922100007E001A2268
:101700000000E8001E220000F30088250000FF0012
:1017100002300000A1000C300000A2000D300000DB
:10172000A3009B300000DE009C300000DF00A030F2
:1017300000003D00A1300000A700A2300000B10071
:10174000A3300000A800A4300000B200A5300000C3
:10175000A900A6300000B300A7300000AA00A830FE
:101760000000B400A9300000AB00AA300000B500B2
:10177000AB300000B600AC300000B6DEAD3000008B
:10178000B700AE300000B7DEAF300000B800B030B8
:101790000000B8DEB1300000B900B2300000B9DEA0
:1017A000B3300000BA00B4300000BADEB53000003B
:1017B000BB00B6300000BBDEB7300000BC00B83064
:1017C0000000BCDEB9300000BD00BA300000BDDE54
:1017D000BB300000BE00BC300000BEDEBD300000EB
:1017E000BF00BE300000BFDEBF300000C000C03010
:1017F0000000C0DEC1300000C100C2300000C1DE08
:10180000C3300000AF00C4300000C200C53000008B
:10181000C2DEC6300000C300C7300000C3DEC830DF
:101820000000C400C9300000C4DECA300000C5009A
:10183000CB300000C600CC300000C700CD30000027
:10184000C800CE300000C900CF300000CA00D03040
:101850000000CADED1300000CADFD2300000CB0069
:10186000D3300000CBDED4300000CBDFD530000019
:10187000CC00D6300000CCDED7300000CCDFD83032
:101880000000CD00D9300000CDDEDA300000CDDF21
:10189000DB300000CE00DC300000CEDEDD300000AA
:1018A000CEDFDE300000CF00DF300000D000E030BF
:1018B0000000D100E1300000D200E2300000D3008F
:1018C000E3300000AC00E4300000D400E53000005C
:1018D000AD00E6300000D500E7300000AE00E83093
:1018E0000000D600E9300000D700EA300000D80040
:1018F000EB300000D900EC300000DA00ED300000E1
:10190000DB00EF300000DC00F2300000A600F33016
:101910000000DD00F4300000B3DEF7300000DCDE54
:10192000FA300000A6DEFB300000A500FC3000000D
:10193000B000FD300000A400074E0000FB008651FF
:101940000000FC0043530000FA0064FF0000A40004
:1019500065FF0000A50066FF0000A60067FF00000D
:10196000A70068FF0000A80069FF0000A9006AFF47
:101970000000AA006BFF0000AB006CFF0000AC0091
:101980006DFF0000AD006EFF0000AE006FFF0000B5
:10199000AF0070FF0000B00071FF0000B10072FFE7
:1019A0000000B20073FF0000B30074FF0000B40039
:1019B00075FF0000B50076FF0000B60077FF00005D
:1019C000B70078FF0000B80079FF0000B9007AFF87
:1019D0000000BA007BFF0000BB007CFF0000BC00E1
:1019E0007DFF0000BD007EFF0000BE007FFF000005
:1019F000BF0080FF0000C00081FF0000C10082FF27
:101A00000000C20083FF0000C30084FF0000C40088
:101A100085FF0000C50086FF0000C60087FF0000AC
:101A2000C70088FF0000C80089FF0000C9008AFFC6
:101A30000000CA008BFF0000CB008CFF0000CC0030
:101A40008DFF0000CD008EFF0000CE008FFF000054
:101A5000CF0090FF0000D00091FF0000D10092FF66
:101A60000000D20093FF0000D30094FF0000D400D8
:101A700095FF0000D50096FF0000D60097FF0000FC
:101A8000D70098FF0000D80099FF0000D9009AFF06
:101A90000000DA009BFF0000DB009CFF0000DC0080
:101AA0009DFF0000DD009EFF0000DE009FFF0000A4
:101AB000DF00E5FF00005C000000000001020404FC
:101AC0000000001C1C0C04040402010000000000C3
:101AD00004081000000000002D2D2D2D2D2D007C60
:101AE0004D61726C696E7C002D2D2D2D2D2D000009
:101AF0001C1F11111F00000006191803130C00040D
:101B00000E1F041C000000000E1315110E00001C17
:101B100010181705060500040A0A0A0A11110E0C0E
:101B200012120C00000000001F1511151F000042CA
:101B3000656400456E636C6F73757265004C6F6110
:101B400064206D6D00556E6C6F6164206D6D004694
:101B5000696C2E204469612E004520696E206D6DF0
:101B6000C2B300416476616E6365204B00200220A1
:101B700046616374002002204D6178002002204DF0
:101B8000696E004F6666004F6E004175746F746534
:101B90006D70005654726176204D696E00566D6905
:101BA0006E00566D6178204500566D6178205A00B0
:101BB000566D6178205900566D6178205800416D4E
:101BC0006178204500416D6178205A00416D61784F
:101BD000205900416D6178205800412D5472617682
:101BE000656C00412D5265747261637400416363DA
:101BF000656C0056652D4A65726B00565A2D4A6514
:101C0000726B0056592D4A65726B0056582D4A6505
:101C1000726B00452073746570732F6D6D005A20D0
:101C200053746570732F6D6D005920537465707314
:101C30002F6D6D00582053746570732F6D6D0041CA
:101C40006476616E6365642053657474696E67734E
:101C5000003F0043616E63656C00496E6974004D1E
:101C600034323800496E697469616C697A6520455F
:101C70004550524F4D0046696C616D656E7400545D
:101C8000656D70657261747572650053746570730B
:101C90002F6D6D004A65726B00416363656C657200
:101CA0006174696F6E0056656C6F63697479005377
:101CB000657420486F6D65204F66667365747300A8
:101CC000436F6E66696775726174696F6E004C650B
:101CD00076656C696E6720446F6E6521004D6F7686
:101CE00065205A00473239205332004E65787420FF
:101CF000506F696E74002569202F202575004732CA
:101D0000392053310047323920533200436C696324
:101D10006B20746F20426567696E00486F6D696E55
:101D2000672058595A0053746F7265205365747454
:101D3000696E6773004C6F61642053657474696EDB
:101D4000677300426564205A0046616465204865F7
:101D500069676874004F6666004F6E0042656420D4
:101D60004C6576656C696E67004C6576656C2042E3
:101D70006564004D6F74696F6E00426564004E6F5C
:101D80007A7A6C650046616E205370656564004325
:101D90006F6E66696775726174696F6E0052657304
:101DA000746F72652044656661756C7473004C6F66
:101DB00061642053657474696E67730053746F7245
:101DC000652053657474696E677300507265686549
:101DD0006174202420436F6E6600416476616E63F7
:101DE00065642053657474696E6773004D61696E34
:101DF000004D313430205337350A4D3130342053C3
:101E00003231350A4D3131372055736572205363B5
:101E10007269707420446F6E65004D313430205308
:101E20003130300A4D31303420533234300A4D31A4
:101E30003137205573657220536372697074204482
:101E40006F6E65004D313430205338300A4D3130DB
:101E50003420533233300A4D313137205573657297
:101E60002053637269707420446F6E650050726510
:101E70006865617420666F7220414253005072653C
:101E80006865617420666F72205045544700507237
:101E9000656865617420666F7220504C41004D6129
:101EA000696E004D37303220542564004D36303095
:101EB00020423020542564004D373032203B2564C9
:101EC000004D37303120542564004D373032004DFD
:101ED000373031004D363030204230004D61696E70
:101EE00000436F6E74696E7565005075726765208A
:101EF0006D6F726500524553554D45204F50544902
:101F00004F4E533A005052494E542050415553457C
:101F1000440020204E6F7A7A6C653A20005061723E
:101F20006B696E672E2E2E00000057616974206663
:101F30006F720066696C616D656E74206368616EB6
:101F4000676500746F2073746172740057616974FF
:101F500020666F720066696C616D656E7420756EC7
:101F60006C6F616400004E6F7A7A6C652068656101
:101F700074696E6700506C65617365207761697480
:101F80002E2E2E0000507265737320627574746F6C
:101F90006E00746F2068656174206E6F7A7A6C656C
:101FA0000000496E736572742066696C616D656EC0
:101FB0007400616E6420707265737320627574744E
:101FC0006F6E00746F20636F6E74696E7565005775
:101FD00061697420666F720066696C616D656E740C
:101FE000206C6F61640000507265737320427574D9
:101FF000746F6E00746F20726573756D65207072FA
:10200000696E7400005761697420666F7220707287
:10201000696E7400746F20726573756D652E2E2E57
:1020200000005761697420666F720066696C616DAB
:10203000656E7420707572676500003E2000256C27
:10204000642E25696D00457874727564656420544A
:102050006F74616C003E20004C6F6E676573742076
:102060004A6F622054696D65003E2000546F7461B0
:102070006C205072696E742054696D6500436F6DF9
:10208000706C65746564005072696E7420436F757E
:102090006E74003135300035004245443A455043B6
:1020A0004F53203130304B0052756E61776179208B
:1020B00057617463683A204F4E004D617820546533
:1020C0006D7000323735004D696E2054656D7000BB
:1020D000350045313A204550434F53203130304B85
:1020E000005053550047656E657269630050726F0A
:1020F000746F636F6C00312E300042617564003282
:102100003530303030004D4B532047454E203E3D5A
:102110002076312E33004D657368204C6576656CF2
:10212000696E67004578747275646572730031007A
:1021300068747470733A2F2F6D61726C696E667774
:102140002E6F7267005445564F20546172616E7451
:10215000756C61202845617379436F6E66696729E4
:1021600000323032302D30382D32370062756766DC
:1021700069782D322E302E78004D61726C696E00B8
:102180005072696E74657220537461747300546880
:1021900065726D6973746F727300426F617264204F
:1021A000496E666F005072696E74657220496E6682
:1021B0006F004D61696E003F004261636B005374B4
:1021C0006F70005072696E742066726F6D204D657D
:1021D000646961004368616E6765204D656469618B
:1021E000004D32310041626F7574205072696E7417
:1021F0006572004368616E67652046696C616D6554
:102200006E74005072656865617420436F6D6D6116
:102210006E647300436F6E66696775726174696F8F
:102220006E0054656D7065726174757265004D6FF6
:1022300074696F6E00526573756D65205072696EBA
:1022400074004E6F204D656469610054756E6500C1
:1022500053746F70205072696E74005061757365AD
:10226000205072696E7400496E666F205363726508
:10227000656E003F005374617274205072696E7411
:102280000043616E63656C005072696E7400436157
:102290006E6E6F7420656E7465722073756264690A
:1022A000723A2000052E2E004D61696E004D6F744C
:1022B000696F6E0044697361626C65205374657068
:1022C00070657273004D383400426564204C657649
:1022D000656C696E6700486F6D65205A004732383B
:1022E0005A00486F6D652059004732385900486FD1
:1022F0006D6520580047323858004175746F20488A
:102300006F6D6500473238004D61696E005072652F
:1023100068656174202420456E64005072656865AC
:1023200061742024204265640054656D706572619B
:102330007475726500436F6F6C646F776E005072D6
:10234000656865617420240046616E205370656580
:1023500064207E00426564004E6F7A7A6C65004DA1
:1023600061696E004261627973746570205A004140
:102370006476616E6365204B00466C6F7700466142
:102380006E205370656564207E00426564004E6F68
:102390007A7A6C6500426564205A00537065656402
:1023A000004D61696E002568753A25303268750008
:1023B00025303268753A2530326875002D2D2D0094
:1023C0005344002020202020202000202020200016
:1023D0005072696E742041626F72746564004D3290
:1023E000350050617573696E672E2E2E004545507D
:1023F000524F4D2056657273696F6E204572726F31
:102400007200454550524F4D20496E646578204515
:1024100072726F7200454550524F4D204352432017
:102420004572726F72003F0049676E6F72650052AD
:102430006573657400496E697469616C697A6520B9
:10244000454550524F4D00486F6D696E672046619B
:10245000696C6564006F70656E005452494747456A
:10246000524544003A20007A5F6D696E00795F6DD5
:10247000696E00785F6D696E005265706F72746985
:102480006E6720656E6473746F7020737461747509
:10249000730A0020746F6F206C6F6E67206578740C
:1024A000727573696F6E2070726576656E7465649F
:1024B0000A0020636F6C6420657874727573696FAD
:1024C0006E2070726576656E7465640A00000000A7
:1024D0000000000000000000005761726E696E6726
:1024E0003A20486F6D696E672042756D70204469AF
:1024F0007669736F72203C20310A000303050000E7
:10250000484200004842000020410000E040000036
:10251000E040000040400000484300004843000005
:102520004843FFFFFF0000484300004843000048C5
:10253000430000000000000000000000005365742C
:1025400074696E67732053746F72656400290A00A2
:102550002062797465733B20637263200053657455
:1025600074696E67732053746F7265642028004528
:102570004550524F4D206461746173697A652065DE
:1025800072726F722E0A00290A00206279746573D4
:102590003B2063726320002073746F726564207344
:1025A000657474696E6773207265747269657665A7
:1025B00064202800202863616C63756C6174656415
:1025C00029210A0020213D2000454550524F4D2031
:1025D000435243206D69736D61746368202D202818
:1025E00073746F7265642920002053697A653A20FC
:1025F00000496E6465783A2000204D61726C696E06
:102600003D563831290A00454550524F4D207665D8
:102610007273696F6E206D69736D617463682028D1
:10262000454550524F4D3D0048617264636F64658B
:10263000642044656661756C742053657474696EBA
:102640006773204C6F616465640A000000C8430032
:1026500000C8430000A041000048420000A0420022
:1026600000A0420000C8430000C842B80B0000B8F8
:102670000B000064000000102700003B2000202019
:102680004D36303320002055004C0046696C616D9A
:10269000656E74206C6F61642F756E6C6F61642061
:1026A0006C656E677468733A0020204D39303020B5
:1026B0004B004C696E65617220416476616E6365A2
:1026C0003A0020440020490020204D33303420506F
:1026D0000020440020490020204D3330312050009C
:1026E0005049442073657474696E67733A002046DC
:1026F0000020420020480020204D31343520530076
:102700004D6174657269616C2068656174757020D3
:10271000706172616D65746572733A002020473292
:1027200039205334205A00204A00202047323920D3
:10273000533320490020204D3432302053004D6562
:10274000736820426564204C6576656C696E673AF3
:102750000020204D323036205800486F6D65206FC4
:1027600066667365743A0020580020530020204D9F
:10277000323035204200416476616E6365643A20F0
:10278000423C6D696E5F7365676D656E745F7469F9
:102790006D655F75733E20533C6D696E5F66656560
:1027A00064726174653E20543C6D696E5F74726141
:1027B00076656C5F66656564726174653E20583C41
:1027C0006D61785F785F6A65726B3E20593C6D6120
:1027D000785F795F6A65726B3E205A3C6D61785F05
:1027E0007A5F6A65726B3E20453C6D61785F655F1C
:1027F0006A65726B3E0020540020520020204D324A
:102800003034205000416363656C65726174696F98
:102810006E2028756E6974732F7332293A20503CEC
:102820007072696E745F616363656C3E20523C72C6
:102830006574726163745F616363656C3E20543CD0
:1028400074726176656C5F616363656C3E00202025
:102850004D3230312058004D6178696D756D2041E1
:102860006363656C65726174696F6E2028756E694B
:1028700074732F7332293A0020204D3230332058A0
:10288000004D6178696D756D20666565647261746F
:1028900065732028756E6974732F73293A00537419
:1028A0006570732070657220756E69743A002044FB
:1028B0000020204D32303020530020446973616283
:1028C0006C65640A0046696C616D656E74207365A1
:1028D0007474696E67733A0020204D313439204397
:1028E000203B20556E69747320696E2043656C73BC
:1028F0006975730A0020286D6D2900202047323148
:10290000202020203B20556E69747320696E206D55
:102910006D0024F4D43050C38E20C2A24017828BA5
:102920007011127A910D816CD90AA861E108C7581B
:102930006607615143061E4B5D05C145A7041A4158
:102940001104093D9803713931034036DB026533C8
:102950009102D4305402802E1D02632CEE01752AA0
:10296000C501B028A001102781018F2564012B2407
:102970004B01E0223401AC211F018D200D01801F8D
:10298000FC00841EED00971DDF00B81CD200E61B82
:10299000C600201BBC00641AB200B219A8000A19B4
:1029A000A0006A189900D117910040178B00B51646
:1029B000840031167E00B31579003A157300C714F0
:1029C0006F0058146A00EE13660088136300251325
:1029D0005E00C7125B006C12570015125400C11143
:1029E000510070114F0021114B00D61049008D107D
:1029F00047004610440002104200C00F4000800F04
:102A00003E00420F3C00060F3B00CB0E3800930EF9
:102A100037005C0E3500270E3400F30D3200C10D77
:102A20003100900D3000600D2E00320D2D00050D8F
:102A30002C00D90C2B00AE0C2900850C29005C0C55
:102A40002700350C27000E0C2600E80B2400C40BD1
:102A50002400A00B23007D0B23005A0B2100390B0F
:102A60002100180B2000F80A1F00D90A1E00BB0A1B
:102A70001E009D0A1D00800A1D00630A1C00470AF3
:102A80001B002C0A1B00110A1A00F7091A00DD09A5
:102A90001900C4091900AB091900920917007B0934
:102AA0001800630917004C091600360916002009A2
:102AB00016000A091500F5081500E0081400CC08F6
:102AC0001400B8081400A4081400900813007D082E
:102AD00012006B0813005808120046081200340850
:102AE0001100230811001208110001081100F0075D
:102AF0001000E0071000D0071000C0071000B0075A
:102B00000F00A107100091070E0083070F00740744
:102B10000F0065070E0057070E0049070E003B0720
:102B20000D002E070E0020070D0013070D000607ED
:102B30000D00F9060C00ED060D00E0060C00D406B1
:102B40000C00C8060C00BC060C00B0060C00A40665
:102B50000B0099060C008D060B0082060B00770611
:102B60000B006C060B0061060A0057060B004C06B2
:102B70000A0042060A0038060A002E060A00240649
:102B80000A001A060A001006090007060A00FD05D9
:102B90000900F4050900EB050900E2050900D90563
:102BA0000900D0050900C7050900BE050900B505E3
:102BB0000800AD050800A50509009C05080094055E
:102BC00008008C050800840508007C0508007405D1
:102BD00008006C050700650508005D05070056053F
:102BE00008004E05070047050700400508003805A6
:102BF0000700310507002A050700230507001C050B
:102C00000600160507000F05070008050600020567
:102C10000700FB040600F5040700EE040600E804C4
:102C20000600E2040700DB040600D5040600CF041A
:102C30000600C9040600C3040600BD040600B7046C
:102C40000600B1040500AC040600A6040600A004BA
:102C500005009B04060095040500900406008A0404
:102C6000050085040500800406007A04050075044B
:102C70000500700405006B0405006604050061048E
:102C800005005C04050057040500520405004D04CE
:102C9000050048040500430405003E0404003A040E
:102CA000050035040500300404002C040500270449
:102CB0000400230405001E0404001A040400160482
:102CC0000500110404000D040400090405000404B7
:102CD000040000040400FC030400F8030400F403EF
:102CE0000400F0030400EC030400E8030400E40320
:102CF0000400E0030400DC030400D8030400D40350
:102D00000400D0030400CC030400C8030300C5037F
:102D1000030024F404D9201BC40C5C0E9804C409DD
:102D20005F0265077101F405F900FB04B300480474
:102D30008700C10369005803550003034500BE0224
:102D40003A008402310053022A00290225000402BD
:102D50002000E4011C00C8011900AF011700980110
:102D60001400840113007101100061011000510171
:102D70000E0043010D0036010B002B010B0020015A
:102D80000B00150109000C01090003010800FB00FC
:102D90000800F3000800EB000700E4000600DE0076
:102DA0000600D8000600D2000600CC000500C700CF
:102DB0000500C2000500BD000400B9000400B50014
:102DC0000400B1000400AD000400A9000400A50047
:102DD0000300A20003009F0004009B000300980072
:102DE00003009500020093000300900003008D0093
:102DF00002008B00030088000200860002008400AD
:102E00000300810002007F0002007D0002007B00C1
:102E100002007900020077000100760002007400D1
:102E2000020072000100710002006F0002006D00DC
:102E300001006C0002006A000100690002006700E6
:102E400001006600010065000100640002006200EC
:102E5000010061000100600001005F0002005D00F0
:102E600001005C0001005B0001005A0001005900F4
:102E700001005800010057000100560001005500F4
:102E800001005400010053000000530001005200F3
:102E9000010051000100500001004F0001004E00F0
:102EA00000004E0001004D0001004C0001004B00ED
:102EB00000004B0001004A000100490001004800E9
:102EC00000004800010047000100460000004600E5
:102ED00001004500000045000100440001004300DE
:102EE00000004300010042000000420001004100D8
:102EF000000041000100400001003F0000003F00D1
:102F000001003E0000003E0001003D0000003D00C9
:102F100001003C0000003C0000003C0001003B00C0
:102F200000003B0001003A0000003A0001003900B7
:102F300000003900010038000000380000003800AF
:102F400001003700000037000100360000003600A5
:102F5000000036000100350000003500000035009B
:102F60000100340000003400000034000100330090
:102F70000000330000003300010032000000320086
:102F8000000032000100310000003100000031007B
:102F900001003000000030000000300001002F0070
:102FA00000002F0000002F0000002F0001002E0065
:102FB00000002E0000002E0001002D0000002D005A
:102FC00000002D0000002D0001002C0000002C004E
:102FD00000002C0000002C0001002B0000002B0042
:102FE00000002B0000002B0001002A0000002A0036
:102FF00000002A0000002A0001002900000029002A
:10300000000029000000290000002900010028001C
:103010000000280000002800000028000000280010
:103020000100270000002700000027000000270003
:1030300000002700010026000000260000002600F6
:1030400000002600000026000100250000002500E9
:1030500000002500000025000000250000002500DC
:1030600001002400000024000000240000002400CF
:1030700000002400010023000000230000002300C2
:1030800000002300000023000000230000002300B4
:1030900001002200000022000000220000002200A7
:1030A0000000220000002200010021000000210099
:1030B000000021000000210000002100000021008C
:1030C000000021000100200000002000000020007E
:1030D0000000200000002000000020000000200070
:1030E0000000200001001F0000001F0000001F0062
:1030F00000001F0000001F0000001F0000001F0054
:1031000001001E0000001E0000001E0000001E0046
:103110000000C23100001C260000F4190000D80F86
:103120000000EB080000C004000075020000400130
:10313000000020436F756E7420583A0042656400A9
:10314000453100626564002C2073797374656D20CD
:1031500073746F7070656421204865617465725F77
:1031600049443A200048656174696E672046616988
:103170006C65640048656174696E67206661696C9E
:103180006564004572723A204D415854454D5000D7
:103190004D415854454D502074726967676572659A
:1031A00064004572723A204D494E54454D50004DD1
:1031B000494E54454D502074726967676572656465
:1031C00000202F002042403A0020403A0020573A89
:1031D0000020573A00496E76616C69642065787406
:1031E00072756465720A00504554470041425300AD
:1031F000504C41005072696E742050617573656463
:10320000007C3C3E5E2B3D3F2F5B5D3B2C2A225CCD
:103210000043616E6E6F74206F70656E207375620F
:103220006469722000534420496E697420466169C4
:103230006C0053442063617264206F6B0A006F70EE
:10324000656E526F6F74206661696C65640A007602
:103250006F6C756D652E696E6974206661696C6549
:10326000640A004E6F20534420636172640A004D6B
:103270003234004D32332025730046696C6520736B
:10328000656C65637465640A002053697A653A2049
:103290000046696C65206F70656E65643A20004574
:1032A0004E4420535542524F5554494E450A002230
:1032B00020706F73002220706172656E743A220074
:1032C000535542524F5554494E452043414C4C2092
:1032D0007461726765743A220053756263616C6C45
:1032E000204F766572666C6F77004578636565641C
:1032F0006564206D617820535542524F5554494EB4
:10330000452064657074683A310A005772697469BF
:103310006E6720746F2066696C653A20002E0A0083
:103320006F70656E206661696C65642C2046696CFF
:10333000653A2000667265736800646F696E6700A5
:103340002066696C653A20004E6F772000000021EE
:1033500000240027002A002D003000330001010066
:1033600000040107010A0100002200250028002BAB
:10337000002E003100340002010000050108010B9D
:1033800001000020002300260029002C002F00321D
:1033900000000100000301060109010505050507FC
:1033A0000508080808020202020A0A0808040404C0
:1033B00004010101010101010103030303030303EC
:1033C00003040707070C0C0C0C0C0C0C0C0202027B
:1033D0000206060606060606060B0B0B0B0B0B0B6E
:1033E0000B0102102020080810204010204080020D
:1033F000010201080402010102040810204080803B
:1034000040201008040201800402018040201008BE
:103410000402010804020101020408102040800196
:103420000204081020408000000A0B02090C0D0E57
:103430000807030401000000000000000000000075
:10344000000000000000000000000000000000007C
:103450000000001211100000000000000000000039
:10346000000000000000000000000000000268747E
:103470007470733A2F2F6D61726C696E66772E6F60
:1034800072670068747470733A2F2F6D61726C6983
:103490006E66772E6F72670068747470733A2F2FA0
:1034A0006D61726C696E66772E6F72670062756708
:1034B0006669782D322E302E7800627567666978DD
:1034C0002D322E302E78006275676669782D322E87
:1034D000302E780068747470733A2F2F6D61726C9F
:1034E000696E66772E6F72670068747470733A2F16
:1034F0002F6D61726C696E66772E6F7267006874EB
:103500007470733A2F2F6D61726C696E66772E6FCF
:10351000726700206275676669782D322E302E78CA
:103520000070012C0190012701B0012201C0011D92
:1035300001F00118011002130130020E01600209AE
:103540000190020401C002FF000003FA004003F5ED
:10355000008003F000D003EB002004E6007004E1DB
:1035600000E004DC004005D700C005D2004006CDD5
:1035700000D006C8008007C3003008BE00F008B9BC
:1035800000C009B400B00AAF00B00BAA00D00CA56F
:1035900000000EA000500F9B00C01096005012912A
:1035A0000000148C00C0158700B0178200B0197D90
:1035B00000D01B7800001E730040206E009022692E
:1035C00000F024640040275F0090295A00E02B554A
:1035D00000102E500020304B0010324600E03341E6
:1035E0000090353C001037370070383200A0392D7C
:1035F00000B03A2800A03B2300603C1E00103D199B
:1036000000903D1400103E0F00703E0A00C03E05C1
:1036100000003F0000403FFBFF803FF6FFC03FF14E
:10362000FF2020506C616E6E657242756666657231
:1036300042797465733A20002046726565204D65B5
:103640006D6F72793A2000436F6D70696C65643AF2
:10365000204F637420203520323032300A00204C55
:1036600061737420557064617465643A203230323D
:10367000302D30382D3237207C20417574686F72C0
:103680003A20284A696D2042726F776E2C2054458B
:10369000564F20546172616E74756C612045617380
:1036A00079436F6E666967290A0062756766697893
:1036B0002D322E302E780A004D61726C696E00201A
:1036C000536F6674776172652052657365740A0082
:1036D000205761746368646F672052657365740A6C
:1036E000002042726F776E206F757420526573658B
:1036F000740A002045787465726E616C205265739F
:1037000065740A00506F77657255700A00737461B2
:1037100072740A006175746F25632E670047323832
:103720005859004D31303031006572726F72207718
:10373000726974696E6720746F2066696C650A002F
:10374000446F6E6520736176696E672066696C658B
:103750002E0A004D323900456E6473746F70730029
:103760002553202563202563202563202563002021
:103770005A3A0020593A0020583A00656E64737432
:103780006F7073206869743A2000004D6F76652071
:1037900025736D6D004D6F766520302E316D6D0097
:1037A0004D6F766520316D6D004D6F76652031303F
:1037B0006D6D004D6F7665204178697300486F74B8
:1037C000656E6420746F6F20636F6C64004578745D
:1037D0007275646572004D6F7665205A004D6F7684
:1037E000652059004D6F7665205800F031EC31E7C7
:1037F000314368616E67652046696C616D656E7402
:1038000000556E6C6F61642046696C616D656E7405
:10381000004C6F61642046696C616D656E74005088
:1038200072656865617420437573746F6D005072C2
:1038300065686561742024004261636B00507269A1
:103840006E742066726F6D204D6564696100486F0B
:103850006D65202573257325732046697273740086
:10386000496E736572742066696C616D656E742053
:10387000616E6420707265737320627574746F6E0C
:103880000A00220A00556E6B6E6F776E20636F6DB3
:103890006D616E643A2022005445564F2054617287
:1038A000616E74756C61202845617379436F6E6633
:1038B0006967292052656164792E005072696E74BF
:1038C000696E672E2E2E00204500205A00205900D8
:1038D000204D393220580020453A00205A3A002025
:1038E000593A00583A0020746F6F206C6F6E672051
:1038F000657874727573696F6E2070726576656E27
:103900007465640A0020636F6C6420657874727556
:1039100073696F6E2070726576656E7465640A00F7
:103920002E0A006F70656E206661696C65642C20DC
:1039300046696C653A2000544845524D414C20522E
:10394000554E4157415900546865726D616C205263
:10395000756E6177617900006001AE0111241FBEB0
:10396000CFEFD1E2DEBFCDBF00E00CBF13E0A0E09F
:10397000B2E0ECEAFBE602E00BBF02C007900D925A
:10398000A831B107D9F724E1A8E1B3E001C01D9245
:10399000AC35B207E1F71CE1CDEADCE100E006C09E
:1039A00021970109802FFE010F944635CC3AD107AB
:1039B00080E00807A9F70F94EB1E0D94C4350C9412
:1039C00000006091180270911902072E000C880BFC
:1039D000990B0F94512B2AE037ED43E25CE30F94EF
:1039E000B02B2091F0043091F1044091F2045091F9
:1039F000F3040F94B02B60935B0270935C0280938E
:103A00005D0290935E020895E091D008E23030F4B8
:103A1000F0E0E559F64F8091D50880830895E09154
:103A2000D008E23030F4F0E0E559F64F8091D50847
:103A3000808308958091A9118823C1F081508093DB
:103A4000A911E8E0F0E1882351F08150990B2BE1B6
:103A5000289FF001299FF00D1124E556FF4E8BE1C0
:103A6000ADEEBFE001900D928A95E1F72091A9118A
:103A7000211105C08091B31180628093B31181E060
:103A800090E0A0E0B0E0211103C080E090E0DC0114
:103A90008093E1089093E208A093E308B093E408D0
:103AA0001092D20881E08093F10883E08093610254
:103AB0000895CF93DF93EC01CB01BA010F94512B02
:103AC00020E030E0A9010F94F2310F945E33798346
:103AD0006883DF91CF910895CF93DF93EC01CB0101
:103AE000BA010F94512B20E030E0A9010F94F2317C
:103AF0000F94653379836883DF91CF910895CF93D5
:103B0000DF93EC01CB01BA010F94512B29EC38EC77
:103B100048EC5EE30F94EC3220E030E040E05FE3FD
:103B20000F94F2310F9465336883DF91CF9108953C
:103B3000E091D00886E0E802F0011124EF5FFA4F2F
:103B40008091D50890E0958384830895CF93DF9387
:103B5000EC01CB01BA010F94512B20E030E040E2A0
:103B600051E40F94EC3220E030E0A9010F94F231DF
:103B7000688379838A839B83DF91CF910895CF9364
:103B8000DF93EC01CB01BA010F94512B20E030E020
:103B900048EC52E40F94EC3220E030E0A9010F949D
:103BA000F231688379838A839B83DF91CF91089573
:103BB000CF93DF93EC01CB01BA010F94512B20E09E
:103BC00030E048EC52E40F94EC3220E030E0A90100
:103BD0000F94F231688379838A839B83DF91CF913D
:103BE0000895CF93DF93EC01CB01BA010F94512BD1
:103BF0002AE037ED43E25DE30F94EC3220E030E061
:103C0000A9010F94F2310F946533688379838A8315
:103C10009B83DF91CF910895CF93DF93EC01CB018C
:103C2000BA010F94512B20E030E0A9010F94F2313A
:103C3000688379838A839B83DF91CF910895CF93A3
:103C4000DF93EC01CB01BA010F94512B20E030E05F
:103C5000A9010F94F231688379838A839B83DF9172
:103C6000CF910895CF93DF93EC01CB01BA010F946C
:103C7000512B2AE037ED43E25DE30F94EC3220E074
:103C800030E0A9010F94F231688379838A839B83A2
:103C9000DF91CF910895CF93DF93EC01CB01BA016F
:103CA0000F94512B20E030E04AE754E40F94EC32BB
:103CB00020E030E0A9010F94F231688379838A8390
:103CC0009B83DF91CF9108958F929F92AF92BF9285
:103CD000CF92DF92EF92FF92CF936B017C0120E0B5
:103CE00030E0A9010F944A2B87FD9FC06DEB77E36D
:103CF00086E095E3A70196010F94F2316B017C01F8
:103D000020E030E040E251E40F94B02B20E030E0BE
:103D100048EC52E40F94B02B4B015C0120E030E002
:103D2000A901C701B6010F944A2B20E030E040EA18
:103D300050E487FF04C020E030E040EA50ECC501C9
:103D4000B4010F94F23120E030E040E251E40F94EE
:103D5000EC320F945E336B017C018BE2F7FE09C0FD
:103D6000F094E094D094C094C11CD11CE11CF11CCF
:103D70008DE28093D404C701B60120E137E240E030
:103D800050E00F94B0318AE0882E912CA12CB12CF8
:103D9000CA01B901A50194010F94B031605D60932F
:103DA000D504C701B60128EE33E040E050E00F949F
:103DB000B031CA01B901A50194010F94B031605D21
:103DC0006093D604C701B60124E630E040E050E03D
:103DD0000F94B031CA01B901A50194010F94B0311B
:103DE000605D6093D7048EE28093D804C701B6016A
:103DF000A50194010F94B031C62FCA01B901A501E4
:103E000094010F94B031605D6093D904C05DC0939C
:103E1000DA0484ED94E0CF91FF90EF90DF90CF90A3
:103E2000BF90AF909F908F9008956DEB77E386E001
:103E300095EB60CF0F94512B20E030E048EC52E43A
:103E40000F94EC3220E030E0A9010F94F2310C9491
:103E5000641E8F929F92AF92BF92CF92DF92EF92A9
:103E6000FF92CF936B017C0120E030E0A9010F9419
:103E70004A2B87FDAAC06DEB77E386E095E3A701A7
:103E800096010F94F2316B017C0120E030E0A90132
:103E90000F944A2B87FF9EC0C701B601905820E0BF
:103EA00030E040E251E40F94B02B20E030E040E2FB
:103EB00051E40F94B02B20E030E040EA50E40F943E
:103EC000F23120E030E040E251E40F94EC320F9404
:103ED0005E336B017C0180E28093D40460E280E178
:103EE000C81687E2D806E104F1048CF0C701B601D8
:103EF00020E137E240E050E00F94B031CA01B9014F
:103F00002AE030E040E050E00F94B031605D609313
:103F1000D50460E288EEC81683E0D806E104F10417
:103F20008CF0C701B60128EE33E040E050E00F947A
:103F3000B031CA01B9012AE030E040E050E00F940E
:103F4000B031605D6093D60460E284E6C816D104A7
:103F5000E104F1048CF0C701B60124E630E040E052
:103F600050E00F94B031CA01B9012AE030E040E0DE
:103F700050E00F94B031605D6093D7048AE0882EE2
:103F8000912CA12CB12CC701B601A50194010F946D
:103F9000B031C62FCA01B901A50194010F94B03107
:103FA000605D6093D8048EE28093D904C05DC093B5
:103FB000DA0484ED94E0CF91FF90EF90DF90CF9002
:103FC000BF90AF909F908F9008956DEB77E386E060
:103FD00095EB55CF20E030E040E251E4C701B60157
:103FE00062CF0F94512B20E030E040E251E40F9477
:103FF000EC3220E030E0A9010F94F2310C94291F3B
:104000008F929F92AF92BF92CF92DF92EF92FF92E8
:10401000CF936B017C0120E030E0A9010F944A2B83
:1040200087FFA3C06DEB77E386E095EBA7019601D0
:104030000F94F2316B017C0120E030E040E251E46A
:104040000F94B02B20E030E048EC52E40F94B02BFA
:104050004B015C0120E030E040E251ECC701B601C9
:104060000F944A2B181654F420E030E048EC52E448
:10407000C701B6010F94523487FD8BC020E030E0B9
:10408000A901C701B6010F944A2B87FF73C060E0F6
:1040900070E080EA90ECA50194010F94F23120E0E9
:1040A00030E040E251E40F94EC320F945E336B0148
:1040B0007C01F7FC64C020E137E240E050E00F945F
:1040C000B031CA01B9012AE030E040E050E00F947D
:1040D000B031605D6093D504C701B60128EE33E0CE
:1040E00040E050E00F94B0319AE0892E912CA12C41
:1040F000B12CCA01B901A50194010F94B031605DE2
:104100006093D604C701B60124E630E040E050E0F9
:104110000F94B031CA01B901A50194010F94B031D7
:10412000605D6093D7048EE28093D804C701B60126
:10413000A50194010F94B031C62FCA01B901A501A0
:1041400094010F94B031605D6093D904C05DC09359
:10415000DA0485ED94E0CF91FF90EF90DF90CF905F
:10416000BF90AF909F908F9008956DEB77E386E0BE
:1041700095E35CCF60E070E080EA90E48CCFF0944F
:10418000E094D094C094C11CD11CE11CF11C6DE2E0
:10419000A1CF20E030E0A901C701B6010F944A2B5E
:1041A00087FF6AC060E070E080EA90ECA5019401AE
:1041B0000F94F23120E030E040E251E40F94EC3211
:1041C0000F945E334B015C0120E030E0A901C70190
:1041D000B6010F94523487FD0BC020E030E040E27E
:1041E00051E4C701B6010F944A2B60E287FD13C06A
:1041F000B7FC47C0C501B40128EE33E040E050E011
:104200000F94B031CA01B9012AE030E040E050E03B
:104210000F94B031605D6093D604C501B40124E60B
:1042200030E040E050E00F94B0318AE0C82ED12C4D
:10423000E12CF12CCA01B901A70196010F94B0310C
:10424000605D6093D7048EE28093D804C501B40109
:10425000A70196010F94B031C62FCA01B901A70179
:1042600096010F94B031605D6093D904C05DC09336
:10427000DA0486ED94E06FCF60E070E080EA90E4CD
:1042800095CFB094A09490948094811C911CA11C13
:10429000B11C6DE2C0CF0F94512B20E030E048EC10
:1042A00052E40F94EC3220E030E0A9010F94F23197
:1042B0000C940020FC0184910895FC0180810895F4
:1042C000CF93DF93DB01F9019C919130C1F09430E1
:1042D00080F094509C938830D1F480819181009734
:1042E00071F0019791838083480F591FEA0118826A
:1042F00006C08C3539F49C5F9C93943041F4DF9177
:10430000CF9108958B3339F781E08C93F8CF2081DA
:104310003181B9016F5F7F4F71836083420F531FFB
:10432000EA018883808191818F3591056CF7E7CF11
:104330009091FF06E92FF0E0E258FF4E80839F5FE7
:10434000943040F49093FF068091C3088F5F809370
:10435000C30808951092FF06F7CF282F9091ED0320
:10436000833021F495FD0FC094FD0FC0892F90E09C
:10437000B0E0A0E004C0B695A795979587952A95DB
:10438000D2F78170089581E0089580E00895CF927A
:10439000DF92EF92FF92CF93DF93EC016A017B01F2
:1043A00027E137EB41ED58EBCB01B6010F945234C6
:1043B00087FD23C027E030E048E453E4C701B6019D
:1043C0000F944A2B1816CCF0C880D980EA80FB8065
:1043D00027E137EB41ED58EBC701B6010F9452349A
:1043E00087FD0BC0C1E027E030E048E453E4C7019B
:1043F000B6010F944A2B18160CF4C0E08C2FDF91F5
:10440000CF91FF90EF90DF90CF9008958C38910579
:1044100014F08CE890E090935705809356050C9427
:104420000FA58091660681110AC0809136098130FE
:1044300041F08091B31182FB882780F9089580E0D4
:10444000089581E008958091261090912710891B8E
:104450008F7011F40C94112281E00895129A08953E
:104460000F94512B20E030E0A9010F94F2310F940A
:104470005E33CB010C9411CCCF92DF92EF92FF927E
:104480006B017C0120E030E0A9010F944A2B87FDED
:1044900026C06DEB77E386E095E3A70196010F94C4
:1044A000F2316B017C0120E030E0A9010F944A2B2E
:1044B00020E030E040E05FE387FF04C020E030E030
:1044C00040E05FEBC701B6010F94F2310F945E3309
:1044D000CB01FF90EF90DF90CF900C9411CC6DEB5F
:1044E00077E386E095EBD9CF0F94512B20E030E0B5
:1044F000A9010F94F2310C943C220F94512B29EC1A
:1045000038EC48EC5EE30F94EC3220E030E040E021
:104510005FE30F94F2310F946533862F0C9474CCC3
:104520000D9471090D94710967EE73E383E00D94A6
:10453000C61A67E376E382E00D94C61A6CE376E36D
:1045400081E00D94C61A61E476E380E00D94C61A0A
:104550002F923F924F925F926F927F928F929F9293
:10456000AF92BF92CF92DF92EF92FF920F931F9381
:10457000CF93DF93D62FC72FFC0180809180A2803C
:10458000B380C501B40120E831E541E050E00F946B
:104590008E31C9016DE671E00F941E356B017C010F
:1045A000C501B40120E13EE040E050E00F948E31BF
:1045B000CA01B90128E130E040E050E00F948E31AB
:1045C000362E272E062F172F8CE3482E512C612CC8
:1045D000712CC501B401A30192010F948E31B62E46
:1045E000A72ECA01B901A30192010F948E31CB010C
:1045F000C114D10479F1AF92BF927F936F932F9240
:104600003F92FF92EF92DF92CF9284E592E19F93E7
:104610008F93CF93DF930F94E12A8DB79EB70E96B9
:104620000FB6F8949EBF0FBE8DBF8D2F9C2FDF91CC
:10463000CF911F910F91FF90EF90DF90CF90BF909F
:10464000AF909F908F907F906F905F904F903F9032
:104650002F900895E114F104C9F0AF92BF927F93B7
:104660006F932F923F92FF92EF9284E492E19F9397
:104670008F93CF93DF930F94E12AEDB7FEB73C966B
:104680000FB6F894FEBF0FBEEDBFCFCF012BB9F030
:10469000AF92BF927F936F932F923F9288E392E104
:1046A0009F938F93CF93DF930F94E12A8DB79EB79B
:1046B0000A960FB6F8949EBF0FBE8DBFB6CF892B5A
:1046C000A9F0AF92BF927F936F9380E392E19F93A3
:1046D0008F93CF93DF930F94E12AEDB7FEB738960F
:1046E0000FB6F894FEBF0FBEEDBF9FCFAF92BF9243
:1046F0008CE292E19F938F93CF93DF930F94E12A03
:104700000F900F900F900F900F900F908ECF84E02E
:104710000D94A30483E00D94A30482E00D94A304FC
:104720000F94512B20E030E0A9010F94F2310F9447
:104730006533CB010C9446CCCF92DF92EF92FF927F
:10474000CF93DF9300D01F92CDB7DEB76B017C0112
:1047500020E030E0A9010F944A2B87FD1CC06DEBCF
:1047600077E386E095E3A70196010F94F231698320
:104770007A838B839C8360E2CE0101960E94CECA2D
:104780000F900F900F900F90DF91CF91FF90EF90CF
:10479000DF90CF9008956DEB77E386E095EBE3CF64
:1047A0000F94512B20E030E04AE754E40F94EC32B0
:1047B00020E030E0A9010F94F2310C949C230C947A
:1047C000B8AF0C94B8AF0C94B8AF0C94B8AF0C94CD
:1047D0006AAF0C946AAF0C946AAF0C946AAFCF9333
:1047E000DF9300D01F92CDB7DEB70F9465330F94DF
:1047F0004F2B69837A838B839C83CE0101960E9421
:104800004BCA0F900F900F900F90DF91CF910895AA
:104810000F94512B2AE037ED43E25DE30F94EC3225
:1048200020E030E0A9010F94F2310C94EF23CF92F5
:10483000DF92EF92FF92CF93DF9300D01F92CDB71C
:10484000DEB76B017C0120E030E0A9010F944A2B18
:1048500087FD1BC06DEB77E386E095E3A70196012A
:104860000F94F23169837A838B839C83CE01019606
:104870000E944BCA0F900F900F900F90DF91CF9135
:10488000FF90EF90DF90CF9008956DEB77E386E097
:1048900095EBE4CF0F94512B2AE037ED43E25DE333
:1048A0000F94EC3220E030E0A9010F94F2310C9427
:1048B00017240F94512B20E030E0A9010F94F2311E
:1048C0000C941724EF92FF920F931F93CF93DF93D3
:1048D00000D000D01F921F92CDB7DEB78E010F5FC0
:1048E0001F4FD80130E020E0FB01E20FF31FE491FD
:1048F000ED932F5F3F4F28303105B1F7877028E0E7
:10490000829FC001112480640F944907780188E0D8
:10491000E80EF11CF80161918F0186E690E10F9499
:104920005707E016F106B1F728960FB6F894DEBFE8
:104930000FBECDBFDF91CF911F910F91FF90EF90F0
:104940000895CF92DF92EF92FF920F931F93CF9330
:10495000DF9300D000D0CDB7DEB78A0146E0469F96
:104960009001479F300D1124BC01620F731F46E078
:1049700050E0CE0101960F94732AC980DA80EB8053
:10498000FC80F80140815181628173818FEF9FEF3C
:10499000C416D506E606F70640F081E090E04C1517
:1049A0005D056E057F0508F080E026960FB6F89449
:1049B000DEBF0FBECDBFDF91CF911F910F91FF9052
:1049C000EF90DF90CF9008950F931F93CF93DF93D5
:1049D000CDB7DEB72E970FB6F894DEBF0FBECDBFB2
:1049E0008A011E861D866F83788789879A872FEFB5
:1049F0002B87603871058105910538F486E690E1D2
:104A00000F94570781E090E02FC09E01235F3F4F36
:104A1000AE01495F5F4F69EB70E082E696E10E946C
:104A2000ACEC97FD2CC08D859E8526E0289FB001BB
:104A3000299F700D11246E59794E46E050E0CE0149
:104A400001960F94732A6D8186E690E10F945707C3
:104A500001301105B9F26E816623A1F286E690E17C
:104A60000F94570782E090E02E960FB6F894DEBFC1
:104A70000FBECDBFDF91CF911F910F9108959E0181
:104A8000235F3F4FAE01495F5F4F63E670E080E117
:104A900094E10E94ACEC97FD0BC08D859E8526E0CD
:104AA000289FB001299F700D1124605F7B4EC5CFF8
:104AB0006FE3A4CFEF92FF920F931F93CF93DF93F7
:104AC00000D000D000D01F921F92CDB7DEB77C017E
:104AD0002091D308422F022E000C550B8091D40850
:104AE000833099F1843051F18CEA9EE15F932F93EA
:104AF0009F938F938E010F5F1F4F1F930F930F9400
:104B0000E12AC7010E945AAF4FE350E0B80182E0AA
:104B100097E00F94AA350F900F900F900F900F9081
:104B20000F902B960FB6F894DEBF0FBECDBFDF916E
:104B3000CF911F910F91FF90EF90089588EB9EE128
:104B400027FDD4CF83EA9EE1D1CF81EC9EE1CECF89
:104B5000E091D00887E1E802F0011124E554F04F1C
:104B6000808591850C945A25E091D00886E0E80272
:104B7000F0011124EF5FFA4F808191810C945A2546
:104B80008091C8039091C903009731F04AE050E04A
:104B900070E060E00D94672960E070E0CB0108955B
:104BA0008091AA0F82FF0BC063E68CE198E00E941F
:104BB00012D10F947E0A0E9412DE81E0089580E0F7
:104BC00008958091C8039091C903009731F04AE09D
:104BD00050E070E060E00D94392860E070E0CB01B7
:104BE00008950E94E125CB01089563E972E084E60F
:104BF00090E00E94E5D06AEB72E084E690E00C94CD
:104C0000E5D081110C94F52568EB71E084E190E02A
:104C10000C94E5D0382F1092DD088091E108909136
:104C2000E208A091E308B091E408B7FF08C0109231
:104C3000E1081092E2081092E3081092E408209133
:104C4000E1082093D1081092F1088091CD08181640
:104C5000ECF4082E000C990B831B9109022E000C1A
:104C6000330B2817390794F097FF02C090E080E0DB
:104C70008093D108092E000CAA0BBB0B8093E1088E
:104C80009093E208A093E308B093E4088091D108E0
:104C90006623A9F09091D208891714F48093D20862
:104CA0002091D208022E000C330B2D5F3F4F482F6E
:104CB000082E000C550B241735071CF483508093E5
:104CC000D2080895E091C304E63010F581E08E0F1C
:104CD0008093C3044091E1085091E2086091E30899
:104CE0007091E4089091D2088091CD0828E0E29F6D
:104CF000F0011124ED56FB4F2091641030916510A6
:104D000031832083428353836483758396838783AF
:104D10000895AF92BF92CF92DF92EF92FF920F93DE
:104D20001F93CF93DF93EC015B018A01FB0119957F
:104D300087FD16C0C82ED12CF12CE12C2196F8014C
:104D4000C082D182E282F382CE01DF91CF911F91A6
:104D50000F91FF90EF90DF90CF90BF90AF900895AC
:104D6000982F907E903CA9F48F7190E0B0E0A0E085
:104D70006C017D0126E0CC0CDD1CEE1CFF1C2A958D
:104D8000D1F7CE010196F50119958F73C82A2296A5
:104D9000D6CF982F907F903E11F58F7090E0B0E0C5
:104DA000A0E06C017D0186E0CC0CDD1CEE1CFF1C3C
:104DB0008A95D1F7CE010196F50119958F73C82A0E
:104DC00096E0CC0CDD1CEE1CFF1C9A95D1F7CE01B1
:104DD0000296F50119958F73C82A2396B0CF982FA4
:104DE000987F903F79F5877090E0B0E0A0E06C018B
:104DF0007D01F6E0CC0CDD1CEE1CFF1CFA95D1F712
:104E0000CE010196F50119958F73C82AA6E0CC0C46
:104E1000DD1CEE1CFF1CAA95D1F7CE010296F50110
:104E200019958F73C82AB6E0CC0CDD1CEE1CFF1C54
:104E3000BA95D1F7CE010396F50119958F73C82A5B
:104E400024967DCF982F9C7F983FE1F5837090E06A
:104E5000B0E0A0E06C017D0156E0CC0CDD1CEE1C46
:104E6000FF1C5A95D1F7CE010196F50119958F7364
:104E7000C82A66E0CC0CDD1CEE1CFF1C6A95D1F73D
:104E8000CE010296F50119958F73C82A76E0CC0CF5
:104E9000DD1CEE1CFF1C7A95D1F7CE010396F501BF
:104EA00019958F73C82AE6E0CC0CDD1CEE1CFF1CA4
:104EB000EA95D1F7CE010496F50119958F73C82AAA
:104EC00025963DCF982F9E7F9C3F09F049C0817069
:104ED00090E0B0E0A0E06C017D0186E0CC0CDD1C30
:104EE000EE1CFF1C8A95D1F7CE010196F5011995AC
:104EF0008F73C82A96E0CC0CDD1CEE1CFF1C9A9523
:104F0000D1F7CE010296F50119958F73C82A26E0D4
:104F1000CC0CDD1CEE1CFF1C2A95D1F7CE010396AC
:104F2000F50119958F73C82A36E0CC0CDD1CEE1CF8
:104F3000FF1C3A95D1F7CE010496F50119958F73B0
:104F4000C82A46E0CC0CDD1CEE1CFF1C4A95D1F7AC
:104F5000CE010596F50119958F73C82A2696EFCED6
:104F6000982F907C903841F4807C803869F42196A9
:104F7000CE01F5011995F8CF8E7F8D3F28F021964F
:104F8000CE01F5011995F8CFC12CD12C7601D7CEE1
:104F90001F93CF93DF9300D01F92CDB7DEB710E001
:104FA000AE014F5F5F4F6AE571E20E948926498139
:104FB0005A816B817C81452B462B472B11F01F5F5B
:104FC000EFCF812F0F900F900F900F90DF91CF9127
:104FD0001F9108951F93CF93DF9300D01F92CDB7F9
:104FE000DEB710E0AE014F5F5F4F6DE571E20E94EA
:104FF000892649815A816B817C81452B462B472B21
:1050000011F01F5FEFCF812F0F900F900F900F9037
:10501000DF91CF911F91089567E27BE180E00E94CC
:1050200062246FE17BE181E00E94622467E17BE121
:1050300082E00E9462246FE07BE186E00E946224AD
:1050400067E07BE187E00E9462246FEF7AE183E012
:105050000E94622467EF7AE184E00E9462246FEE8E
:105060007AE185E00C946224CF93823069F4C4E045
:10507000C15068F088E0C89FB00111246854754E93
:105080008C2F0E946224F4CFCF910C940C28CF91E6
:1050900008958F929F92AF92BF92EF92FF920F93DB
:1050A0001F93CF93DF93EC018B01E42EF22E8091BE
:1050B0006410909165108C179D0709F444C029E98C
:1050C000CF38D20709F04AC0845C984D71F40F9430
:1050D00043096E517B4F8F4F9F4F6093C404709371
:1050E000C5048093C6049093C704D0936510C09301
:1050F000641030E020E00093E1081093E208209370
:10510000E3083093E408E092D208F092CD08C45C42
:10511000D84D21F4109208091092C3040F944F0740
:1051200081E02091641030916510245C384D09F0C5
:1051300080E00E94342882E08093610281E08093C5
:10514000F1081092C804DF91CF911F910F91FF9049
:10515000EF90BF90AF909F908F90089528EDC43C42
:10516000D20719F68F589949D9F40F9443098090C2
:10517000C4049090C504A090C604B090C7046819F8
:1051800079098A099B0997FF0BC08091F206877005
:10519000873031F40E942322C3EDD8E28111A5CFDC
:1051A000C4ECD8EDA2CF20E040E070E060E086EDF6
:1051B00092E30E94492881E0809308091092CC0470
:1051C0001092CB04089521E0209308096093070210
:1051D000709308028093090290930A0220E040E055
:1051E00070E060E08091CA089091CB080C94492847
:1051F0006DEC7CEC8CEC9CE30C94E3286DEC7CEC8B
:105200008CEC9DE30C94E32860E070E080E89FE381
:105210000C94E32860E070E080E291E40C94E328D1
:1052200081E0809308091092060920E040E070E0D8
:1052300060E08DE392E30E94492884E093E290933A
:10524000010780930007089520E040E070E060E0EF
:1052500086E496E30E94492881E08093C904809106
:10526000CA04811107C08EEF9CE1909301078093DF
:105270000007089585E09DE1F8CF20E040E070E070
:1052800060E084EC98ED0C9449280F931F93CF9322
:10529000C42F062F062E000C110B67FD14C086E0EC
:1052A000809FF001819FF00D1124EF5FFA4F808104
:1052B0009181009741F0853021E0920710F084E061
:1052C00091E00E945AAFC7FD0CC086E0C802F00111
:1052D0001124EF5FFA4F82819381009711F00E94B1
:1052E000062286E0809FF001819FF00D1124EF5F80
:1052F000FA4F848195818F3F910519F010F08FEF5F
:1053000090E080936B09CF911F910F910C943D29F0
:105310004FEF6091D50890E080E00C9445298EE035
:1053200099E00F94070B0E943D290C94CCFE61116B
:1053300060935A0240930A09EFEFE80FEB3008F050
:1053400036C00E2E000CFF0B8827E655F64D8F4F0A
:105350000D944635D929DC29B529C029C329C62988
:10536000D229C929D729CC29CF2986E092E321E087
:105370002093080920E040E070E060E00C944928A8
:105380008EE092E3F4CF82E192E3F1CF86E192E303
:10539000EECF8AE192E3EBCF8EE192E3E8CF82E2B7
:1053A00092E3E5CF1092090989E795E4E0CF0C94E8
:1053B0003D2982E092E3DBCF8AE092E3D8CFE0910F
:1053C000C304EE2389F0E150E093C30488E0E89F32
:1053D000F0011124ED56FB4F6281738127814681D4
:1053E000808191810C9449280C943D290C94DF29EB
:1053F00064E084E10F94990781E02091641030917A
:105400006510245C384D09F080E00E9434280D942A
:105410004F074FEF5FEF0C94E424AF92BF92CF920F
:10542000DF92EF92FF920F931F93CF93DF9300D001
:105430001F92CDB7DEB76C015B017A0110E000E08E
:105440000E151F05E8F419821A821B821C82AE0118
:105450004F5F5F4FB501C6010E9489266C016981CB
:105460007A818B819C81611571058105910541F0DF
:10547000A701401B510B0E94E424080F191FE0CF25
:10548000C8010F900F900F900F90DF91CF911F9157
:105490000F91FF90EF90DF90CF90BF90AF90089565
:1054A0008F929F92AF92BF92CF92DF92EF92FF9234
:1054B0000F931F93CF93DF9300D01F92CDB7DEB72A
:1054C0007C01062F6A01122F23E3A22E2BE1B22EBC
:1054D0006E3F21F09FE2A92E9BE1B92E8AE0982E23
:1054E0001116CCF5AE014F5F5F4F6AE571E2C7015F
:1054F0000E9489267C0169817A818B819C8161155A
:1055000071058105910539F16D33710581059105AD
:1055100009F447C06E3771058105910509F441C052
:105520006A3271058105910541F507FF0BC0412FD6
:10553000012E000C550B6AE571E2C5010E940D2A8F
:10554000181B5FC065E470E080E090E00E94092ACB
:10555000115049F510E0812F0F900F900F900F9090
:10556000DF91CF911F910F91FF90EF90DF90CF903F
:10557000BF90AF909F908F90089564327105810520
:10558000910559F4C114D10441F0412F012E000CB2
:10559000550B6AE571E2C6013EC00E94092A11500E
:1055A0009FCF07FDC4CF61E089819A81AB81BC8127
:1055B000CD97A105B10509F460E0600F6A30ACF049
:1055C0001150862F692D0F941035892E682F880F62
:1055D000770B605D7F4F072E000C880B990B0E94A4
:1055E000092A112309F4B6CF682D062E000C770B7B
:1055F000605D7F4F072E000C880B990B0E94092AD3
:105600001150112309F4A6CF412F012E000C550B88
:105610006AE571E2C7010E940D2A181B61CF4FEFA6
:105620005FEF6DE571E20C940D2A4FEF5FEF6AE5D5
:1056300071E20C940D2A643008F063E090917910C7
:10564000691710F06FEF690FE62FF0E0EA59FF4E8F
:105650009489890F80680D9449072F923F924F9249
:105660005F926F927F928F929F92AF92BF92CF92F2
:10567000DF92EF92FF920F931F93CF93DF9300D0AF
:10568000CDB7DEB74C013B015A01222E3B832801E6
:105690004091E1085091E2086091E3087091E408BC
:1056A000411551056105710579F081E01416150663
:1056B0000CF080E08093C8041092E1081092E20898
:1056C0001092E3081092E4081091C8043090CC08BE
:1056D0001092CC08311005C080916102882309F432
:1056E000A5C0C2010E94C827082F80E0C114D104C0
:1056F00019F0C6010E94C8271A821982E114F10428
:10570000B1F4402F50E0282F30E0CA01820F931FE0
:1057100045976CF484E190E0841B950B821B930BFE
:1057200097FD0196959587958A8381E0898301E0AD
:105730002AE531E2A201BE016F5F7F4FCE010296E2
:105740000E944CDDE114F10491F08A81882321F05C
:105750001A8289818F5F898300E02DE531E2A701FC
:10576000BE016F5F7F4FCE0102960E944CDDC114D7
:10577000D10459F000E02AE531E2A601BE016F5FD5
:105780007F4FCE0102960E944CDD63E080E00E94D4
:105790001B2B6BE570E080E090E0112321F060E2CC
:1057A00070E080E090E00E94092AC3010E94152B5E
:1057B0006DE570E080E090E0112321F060E270E0A0
:1057C00080E090E00E94092AC4010E94C82763E09B
:1057D00092E1981B892F0E941B2B60E270E080E011
:1057E00090E0112321F06BE570E080E090E00E94F2
:1057F000092AC4010E94152B60E270E080E090E06D
:10580000112321F06DE570E080E090E00E94092A0C
:10581000332049F0111102C0A22CBB80A114B104A5
:10582000D9F0F501199581E0809308090F900F9048
:105830000F90DF91CF911F910F91FF90EF90DF902C
:10584000CF90BF90AF909F908F907F906F905F9020
:105850004F903F902F9008950E94DF29E4CFAF92A0
:10586000BF92CF92DF92EF92FF920F931F93CF934D
:10587000DF93CDB7DEB7ADB6BEB680911B096EE043
:1058800079E0882311F06BE179E0FB0101900020C1
:10589000E9F7CF01861B970B01962DB73EB7281B62
:1058A000390B0FB6F8943EBF0FBE2DBF8DB79EB714
:1058B00001967C0180E2EDB7FEB78183C7010196B6
:1058C0000F94953583E7C82E82E2D82E05E712E2C1
:1058D00026EF39E24FE859E261E872E288E892E2A5
:1058E0000E942D2B0FB6F894BEBE0FBEADBEDF9149
:1058F000CF911F910F91FF90EF90DF90CF90BF90CD
:10590000AF900895CF92DF92EF92FF920F931F9383
:1059100087EBC82E81E2D82EF12CE12C00E512E2B3
:1059200026EF39E24FEF55ED69EB71E28EEB91E234
:105930000E942D2B1F910F91FF90EF90DF90CF9041
:105940000895CF92DF92EF92FF920F931F9381E51C
:10595000C82E8CE1D82EF12CE12C04E61CE130E0BD
:1059600020E04DE25BEE63E57CE18AE59CE10E948C
:105970002D2B1F910F91FF90EF90DF90CF90089506
:10598000CF92DF92EF92FF920F931F93CF93DF930B
:105990007B01C42F8901682F80E00E941B2BC12C42
:1059A000E114F10421F0C7010E94C827C82ED12CB0
:1059B0000115110521F0C8010E94EA27D82EC0FF69
:1059C0001DC084E190E08C199109C7FC93958D1955
:1059D0009109D7FC939597FD019695958795C4E11C
:1059E000DBEED80F8D2F8C0F87FD09C060E270E0D1
:1059F00080E090E00E94092AC150F4CFC4E1CC209D
:105A000059F04091CE085091CF082C2F6091D008CA
:105A1000C7010E94502AC82FDD2051F04C2F0C2EB8
:105A2000000C550B6DE571E2C8010E940D2AC81BE0
:105A30001C1644F460E270E080E090E00E94092AC5
:105A4000C150F6CFDF91CF911F910F91FF90EF9052
:105A5000DF90CF900895EF92FF920F931F93CF9313
:105A6000DF93CDB7DEB765970FB6F894DEBF0FBEF4
:105A7000CDBF8091CC081092CC08882379F00E9489
:105A8000DF2965960FB6F894DEBF0FBECDBFDF915C
:105A9000CF911F910F91FF90EF90089560E084E007
:105AA0000E940A260091D20810E08AE3F82E90E2C4
:105AB000E92E011130C080916102882341F030E06D
:105AC00020E043E069E771E2812F0E94C02CF98257
:105AD000EA8242E150E06EE271E2CE0103960F9459
